:020000040800F2
:10000000204201200D030008370600082F060008D3
:10001000330600084F0500085D0B000800000000D3
:100020000000000000000000000000004D02000879
:100030005305000800000000A90200080909000893
:1000400027030008270300082703000827030008E8
:1000500027030008270300082703000827030008D8
:1000600027030008270300082703000827030008C8
:1000700027030008270300082703000827030008B8
:1000800027030008270300082703000827030008A8
:100090002703000827030008270300082703000898
:1000A0002703000827030008270300082703000888
:1000B0002703000827030008270300082703000878
:1000C0002703000827030008270300082703000868
:1000D0002703000827030008270300082703000858
:1000E0002703000827030008270300082703000848
:1000F0002703000827030008270300082703000838
:100100002703000827030008270300082703000827
:100110002703000827030008270300082703000817
:100120002703000827030008270300082703000807
:1001300027030008270300082703000827030008F7
:1001400027030008270300082703000827030008E7
:1001500027030008270300082703000827030008D7
:1001600027030008270300082703000827030008C7
:1001700027030008270300082703000800000000E9
:1001800027030008270300082703000827030008A7
:100190002703000827030008270300082703000897
:1001A00000000000000000002703000800F002F833
:1001B00000F03CF80AA090E8000C82448344AAF1C5
:1001C0000107DA4501D100F031F8AFF2090EBAE8C3
:1001D0000F0013F0010F18BFFB1A43F0010318477B
:1001E0002C2700004C270000103A24BF78C878C1A3
:1001F000FAD8520724BF30C830C144BF04680C602D
:10020000704700000023002400250026103A28BF74
:1002100078C1FBD8520728BF30C148BF0B60704778
:100220001FB502F04BFB1FBD10B510BD00F059F912
:100230001146FFF7F5FF00F093FC00F077F903B4E7
:10024000FFF7F2FF03BC00F07BF900002C4B1968AC
:100250000868B0E8F04F80F30988BFF36F8F4FF064
:10026000000080F311887047000000000848006813
:10027000006880F308884FF0000080F3148862B6AD
:1002800061B6BFF34F8FBFF36F8F00DF00BF00BFBA
:1002900008ED00E0DFF80C00016841F47001016036
:1002A000704700BF88ED00E0EFF30980BFF36F8F68
:1002B000134B1A681EF0100F08BF20ED108A20E9BA
:1002C000F04F106009B44FF0500080F31188BFF375
:1002D0004F8FBFF36F8F01F0ABFC4FF0000080F346
:1002E000118809BC19680868B0E8F04F1EF0100FBB
:1002F00008BFB0EC108A80F30988BFF36F8F704796
:1003000018000020EFF3058070470000094880477F
:1003100009480047FEE7FEE7FEE7FEE7FEE7FEE7E7
:10032000FEE7FEE7FEE7FEE704480549054A064BFF
:10033000704700003D090008AD010008202E012093
:1003400020420120203E0120203E0120032A40F2CD
:10035000308010F0030C00F0158011F8013BBCF167
:10036000020F624498BF11F801CB00F8013B38BF7F
:1003700011F8013BA2F1040298BF00F801CB38BF8D
:1003800000F8013B11F0030300F03080083AC0F0A0
:10039000088051F8043B083A51F804CBA0E8081053
:1003A000F5E7121D5CBF51F8043B40F8043BAFF386
:1003B0000080D20724BF11F8013B11F801CB48BFE0
:1003C00011F8012B24BF00F8013B00F801CB48BF16
:1003D00000F8012B704702F0FF0343EA032242EAD0
:1003E000024200F037B870477047704710B5203AA6
:1003F000C0F00B80B1E81850203AA0E81850B1E8DE
:100400001850A0E81850BFF4F5AF5FEA027C24BF93
:10041000B1E81850A0E8185044BF18C918C0BDE88A
:1004200010405FEA827C24BF51F8043B40F8043B53
:1004300008BF7047D20728BF31F8023B48BF11F808
:10044000012B28BF20F8023B48BF00F8012B704762
:100450004FF000020429C0F0128010F0030C00F0ED
:100460001B80CCF1040CBCF1020F18BF00F8012B6B
:10047000A8BF20F8022BA1EB0C0100F00DB85FEA39
:10048000C17C24BF00F8012B00F8012B48BF00F805
:10049000012B70474FF0000200B513469446964674
:1004A000203922BFA0E80C50A0E80C50B1F1200187
:1004B000BFF4F7AF090728BFA0E80C5048BF0CC035
:1004C0005DF804EB890028BF40F8042B08BF704793
:1004D00048BF20F8022B11F0804F18BF00F8012B05
:1004E0007047754600F028F8AE4605006946534649
:1004F00020F00700854618B020B5FFF715FFBDE8CE
:1005000020404FF000064FF000074FF000084FF07A
:10051000000B21F00701AC46ACE8C009ACE8C0090B
:10052000ACE8C009ACE8C0098D4670470446AFF39B
:1005300000802046FFF783FE00487047BC2D012055
:1005400001491820ABBEFEE726000200704700BF3D
:10055000FEE77047F0B50A4600210023002400BFE3
:100560003DE0012505FA01F3156805EA03049C4204
:1005700034D105684F000326BE40B54305601579A8
:100580004E00B5400668354305601579012D02D04F
:100590001579022D16D185684F000326BE40B5435C
:1005A000856055794E00B54086683543856045685D
:1005B00001268E40B5434560456896798E40B6B2B7
:1005C00035434560C5684F000326BE40B543C5604E
:1005D000D5794E00B540C6683543C560491C102921
:1005E000BFD3F0BDF0B5002300244D07ED0E02FA95
:1005F00005F3CE1000F1200555F826504E07F70EF2
:100600000F26BE40B543CF1000F1200646F8275014
:10061000CE1000F1200555F8265045EA0304CE100F
:1006200000F1200545F82640F0BD0183704700BF6A
:10063000FEE700BFFEE7704729B1064A1268024391
:10064000044B1A6004E0034A12688243014B1A60AB
:10065000704700003038024029B1064A1268024350
:10066000044B1A6004E0034A12688243014B1A608B
:1006700070470000403802401CB5012140F2FB10D9
:10068000FFF7DAFF4FF4FF70009001208DF80400AF
:1006900000208DF806008DF805008DF807006946EA
:1006A0001C48FFF757FF02211A48FFF7BEFF04213D
:1006B0001848FFF7BAFF08211648FFF7B6FF1021C8
:1006C0001448FFF7B2FF20211248FFF7AEFF402188
:1006D0001048FFF7AAFF80210E48FFF7A6FF4FF44E
:1006E00080710C48FFF7A1FF092206210A48FFF795
:1006F00079FF02208DF8040000208DF806004020CC
:10070000009003208DF8050069460348FFF722FF9B
:100710001CBD000000180240001C024000B589B05A
:1007200001216A20FFF798FF5320ADF81800002040
:10073000ADF81A004FF4967007900020ADF8200035
:1007400006A9154800F08EF97020ADF804000120CC
:10075000ADF806000020ADF8080003900220ADF8C7
:1007600010000020ADF81200ADF814004FF48070B6
:10077000ADF8160001A9084800F02CF90821064838
:1007800000F066F90121044800F00CF9012102484B
:1007900000F014F909B000BD001800400CB50020AD
:1007A000019000904148006840F480303F49086063
:1007B00000BF3E48006800F4003000900198401CE3
:1007C0000190009818B90198B0F5A04FF1D13748C1
:1007D000006800F4003010B10120009001E000201A
:1007E00000900098012860D130484030006840F007
:1007F00080502E49403108602D48006840F4404048
:100800002B490860294808300068284908310860E9
:100810000846006840F4004008600846006840F45C
:10082000A05008602348091F0860081F006840F0B6
:100830008070091F086000BF1C48006800F000704D
:100840000028F9D01A48006840F480301849086040
:1008500000BF1748406800F480300028F9D01448E1
:10086000006840F400301249086000BF104840683A
:1008700000F400300028F9D040F205700E490860FD
:100880000A480830006820F0030008490831086071
:100890000846006840F00200086000BF03480830C6
:1008A000006800F00C000828F8D10CBD00380240A8
:1008B000007000400C5A4007003C0240152803D14C
:1008C0000021094A11600DE0084931F81010064A6C
:1008D000083A1160054A32F8101001EBD17252103B
:1008E000014B1A607047000034180040C628000809
:1008F00010B50446192C03D20249085DFFF7DEFF4C
:1009000010BD0000F028000810B500BF502080F393
:100910001188BFF34F8FBFF36F8F00BF01F08AFDC7
:1009200018B14FF080500449086000BF002080F3E8
:10093000118800BF10BD000004ED00E010B515489F
:10094000006840F47000134908601348006840F0E4
:1009500001001149086000200F49083108600E4865
:1009600000680E4908400C4908600D48091D0860E0
:10097000081F006820F48020091F08600020064935
:100980000C310860FFF70AFF4FF000600149803921
:10099000086010BD88ED00E000380240FFFFF6FE61
:1009A0001030002421B1028842F08002028004E06D
:1009B00002884FF67F731A400280704721B1028887
:1009C00042F00102028004E002884FF6FE731A40F2
:1009D0000280704770B5002400220023058C4FF67A
:1009E000FE7635400584028C8388048B4FF68F7524
:1009F0002C40B51E2C400D882C43751E2A408D8935
:100A00002A434D882A43104DA84202D00F4DA842D8
:100A100013D14FF6F7752A40CD892A434FF6FB755F
:100A20002A408D882A434FF6FF652B404FF6FF552D
:100A30002B400D8A2B434D8A2B43838004838D6882
:100A40004563028470BD00000000014000040140C5
:100A50000A460021018B4FF6F773194011430183B9
:100A60007047000000220288184B98420ED0184BA5
:100A700098420BD0B0F1804F08D0164B984205D069
:100A8000154B984202D0154B984204D14FF68F7304
:100A90001A404B881A43124B984207D0114B984288
:100AA00004D04FF6FF431A400B891A4302804B686B
:100AB000C3620B880385054B984202D0044B9842D1
:100AC00001D18B7A038601238382704700000140A5
:100AD000000401400004004000080040000C0040F9
:100AE000001000400014004008B5002000900FE006
:100AF00001F09AFC009007480068401C0549086016
:100B000008460068FFF7F4FE6421684600F00CFF19
:100B1000EEE70000140000201CB50446FFF7ACFD12
:100B2000FFF7FCFD00F0E2FD002004210346FA225D
:100B3000CDE9001004A1084801F036FC002000F0C7
:100B40005DFF00F0FDFD1CBD5461736B5F436F6E74
:100B500074726F6C00000000E90A000800BFFEE735
:100B60001CB50020032103464FF49672CDE9001016
:100B700003A1054801F018FC01F008F800BFFEE7EA
:100B8000537973496E697400190B00082DE9F0411F
:100B900005460E461C4807681C480068001D00F00A
:100BA0005BFD50B91948006890F82C10012088406E
:100BB00017490968814316480160681C38B936B185
:100BC00012480168091D134800F084FD1AE07C19E1
:100BD0000E4800684460BC4207D20C480168091DF9
:100BE0000D48006800F05CFD0CE008480168091D34
:100BF0000A48006800F054FD09480068844201D2A8
:100C000007480460BDE8F0812C0000201800002097
:100C10003000002080010020200000201C00002067
:100C20004800002010B5044600F060FD244800682C
:100C3000401C234908602348006840B921480460EB
:100C40000846006801280DD100F0D0F90AE01E48DE
:100C5000006838B91B480068C06AE16A884201D858
:100C60001848046019480068401C18490860084684
:100C70000068206494F82C10012088401449096809
:100C8000084313490860E16A01EB8101114A02EB54
:100C90008100211D00F01EFD00F052FD0A48006891
:100CA00068B108480068C06AE16A884207D24FF01C
:100CB000805009490860BFF34F8FBFF36F8F10BD9D
:100CC00028000020180000203400002044000020EC
:100CD00030000020CC00002004ED00E010B500F052
:100CE00005FD10480068D0B90F4800F0C9FC0F4856
:100CF00000F0C6FC0C480E4908600C480D4908601D
:100D000000220C210A2001F08DF8064908600846EF
:100D1000006820B108A10348006800F0C9FD00F098
:100D20000FFD10BD5C00002094010020A8010020F0
:100D30005400002058000020546D72510000000043
:100D400010B516E000F0D2FC0C48C068C468201D45
:100D500000F082FC0A480068401E09490860094802
:100D60000068401E0749086000F0EAFC204600F0D9
:100D70005EF8044800680028E4D110BD6C01002032
:100D8000280000202400002070B504460D46206C89
:100D900070B1216CE0680844E0606168E0688842F6
:100DA00001D32068E0602846226CE168FFF7CEFAA4
:100DB00070BD2DE9F04104460F4615464FF000087E
:100DC000A66B206C40B9206860BB606801F0D6FB60
:100DD00080460020606025E07DB93946226CA0681D
:100DE000FFF7B4FA216CA0680844A060D4E90110B0
:100DF000884217D32068A06014E03946226CE0686E
:100E0000FFF7A4FA216CE068401AE0602168E0680E
:100E1000884203D2216C6068401AE060022D01D143
:100E200006B1761E701CA0634046BDE8F08110B587
:100E30000446206B00F0A2FC204600F09FFC10BD91
:100E40000146084A126812680AB9012200E000222D
:100E50000A600A6822B9034A1268D268106800E082
:100E6000002070475400002030B54FF496331748E7
:100E700000F007042CB1C01D20F00700134C041B28
:100E80001B1B0246124C22600024114D6C60D018CE
:100E9000083820F007000F4C206000240D4D2D680D
:100EA0006C600C4D2D682C601146441A4C60094C46
:100EB00024680C60084D4C682C60084D4C682C6010
:100EC0004FF00044064D2C6030BD0000BC010020F6
:100ED000740000207C00002084000020800000209E
:100EE0008800002000BFFFF72BFF0648006801289C
:100EF000F9D94FF0805004490860BFF34F8FBFF31A
:100F00006F8FF0E7CC00002004ED00E02DE9F04108
:100F100006460D4617469846069C0DB9246000E02B
:100F20002760E66325640121204600F0A7FF84F8CE
:100F30004C80BDE8F0812DE9F05F82460F46904677
:100F40009B460A9E0C9C4FEA8801A522206BFFF766
:100F500042FAA8F10100216B01EB800929F0070991
:100F600009F0070008B9012000E0002050B900BFD7
:100F7000502080F31188BFF34F8FBFF36F8F00BFF6
:100F800000BFFEE7002507E0795D04F1340041551C
:100F9000785D00B902E06D1C0A2DF5D300BF002179
:100FA0003D200155052E00D30426E662A6640020EC
:100FB000E064201D00F071FB04F1180000F06DFBEF
:100FC0002461C6F10500A06164620020206584F8F8
:100FD00054005A465146484600F028FB20600B98C2
:100FE00008B10B980460BDE8F09F000010B5002424
:100FF00007E004EB84010F4A02EB810000F040FBA4
:10100000641C052CF5D30C4800F03AFB0B4800F0AB
:1010100037FB0B4800F034FB0A4800F031FB0A486C
:1010200000F02EFB0448094908600448084908609C
:1010300010BD0000CC000020300100204401002041
:10104000580100206C010020800100201C000020BD
:101050002000002010B50146164800E00068036833
:101060008B42FBD30246436813448B4204D143684E
:101070004C682344436001460A464B6813440468A5
:10108000A34211D10C4C03682468A34208D04B68DA
:101090000468646823444B6003681B680B6005E0C8
:1010A000054B1B680B6001E003680B60884200D0B1
:1010B000016010BD740000207C0000202DE9F0418B
:1010C00004460D4616461F464FF000086560246131
:1010D000B5420CD8F01BA169884202D34FF0010839
:1010E00011E0211D0948006800F0DAFA0BE0BE4269
:1010F00004D2BD4202D34FF0010804E0211D044890
:10110000006800F0CDFA4046BDE8F08158000020AC
:101110005400002070B5054600F0E8FAA86B08B945
:10112000012400E0002400F00BFB204670BD70B5E8
:10113000054600F0DBFAA86BE96B884201D1012477
:1011400000E0002400F0FCFA204670BDF8B505462A
:101150000F4616480068C068C468201D00F07CFA7D
:10116000E06901281DD1A06941192B463A46204665
:10117000FFF7A4FFA8B1002003462A4601460090CD
:10118000204601F059FB064656B900BF502080F3B7
:101190001188BFF34F8FBFF36F8F00BF00BFFEE713
:1011A00000BF2046616A8847F8BD00005400002057
:1011B00070B586B06AE00398002867DB059C60691B
:1011C00008B9012000E0002010B9201D00F044FA09
:1011D00002A800F0BBF8054603980A2854D2DFE8BD
:1011E00000F009050731334F0608323400BF00BF55
:1011F00000BF00BF0498A269811803462A46204612
:10120000FFF75CFFE8B12046616A8847E069012882
:1012100017D1002000900498A169421800231946B4
:10122000204601F009FB064656B900BF502080F366
:101230001188BFF34F8FBFF36F8F00BF00BFFEE772
:1012400000BF22E000BF20E000BF0498A061A069B9
:1012500008B1012000E0002050B900BF502080F309
:101260001188BFF34F8FBFF36F8F00BF00BFFEE742
:10127000A06941192B462A462046FFF71FFF04E0CC
:10128000204600F07BFA00E000BF00BF002203A967
:101290000348006800F08EFF00288CD106B070BDB6
:1012A0005C000020F8B505460C4600F0B9FC684625
:1012B00000F04CF80646009820BB44B9B54206D869
:1012C00001F00CFA31462846FFF740FF1CE03CB124
:1012D0000E480068006808B9012000E000200446BC
:1012E000A91B22460A48006800F0F8FA01F0F6F956
:1012F00050B94FF0805007490860BFF34F8FBFF3DC
:101300006F8F01E001F0EAF9F8BD000058000020FD
:101310005C00002004ED00E00A490968096809B989
:10132000012100E0002121B14FF0FF31064A116098
:1013300006E004490968C968C868034A4168116041
:10134000704700001C0000204800002070B50446D3
:1013500001F06AF8054607480068854204D200F0AB
:101360000BF80120206001E00020206001480560AA
:10137000284670BD640000202DE9F84332E024487F
:101380000068C068056822480068C068C468201DFD
:1013900000F062F92046616A8847E069012821D19E
:1013A000A0694619AE4207D966602461211D18481C
:1013B000006800F075F915E0002003462A46014652
:1013C0000090204601F038FA074657B900BF502078
:1013D00080F31188BFF34F8FBFF36F8F00BF00BF43
:1013E000FEE700BF0A480068006808B9012000E075
:1013F00000200028C3D00648D0F8008005480068C7
:10140000034908600348C0F80080BDE8F883000085
:1014100054000020580000200E480068401C08B905
:10142000012000E0002050B900BF502080F3118857
:10143000BFF34F8FBFF36F8F00BF00BFFEE700BF4A
:10144000502080F31188BFF34F8FBFF36F8F00BF21
:1014500000BFFEE76800002008B500BF6846FFF740
:10146000EFFC044620460099FFF71CFFFFF7A0FEA3
:10147000F4E770B5044600F039F994F9455010E0EE
:10148000606A08B9012000E0002038B904F12400A6
:1014900001F0D8F818B100F037FB00E003E0681E57
:1014A00045B2002DECDC00BFFF2084F8450000F0C1
:1014B00047F900F01BF994F9445010E0206908B98D
:1014C000012000E0002048B904F1100001F0BAF852
:1014D00008B100F019FB681E45B200E001E0002DE4
:1014E000ECDC00BFFF2084F8440000F029F970BD57
:1014F0002DE9F04104464FF0000800F091FB46480A
:10150000006808B9FFF7B0FC444800682040002894
:101510006BD1D4B1083404F00700B0B104F0070077
:10152000C0F10800044404F0070008B9012000E0FD
:10153000002050B900BF502080F31188BFF34F8FB7
:10154000BFF36F8F00BF00BFFEE7002C4DD03448C3
:101550000068844249D8334E3046056801E02E4683
:101560002D686868A04202D228680028F7D12A486E
:101570000068854239D0306800F10808286830607A
:101580006868001B102819D92F1907F0070008B93F
:10159000012000E0002050B900BF502080F31188E6
:1015A000BFF34F8FBFF36F8F00BF00BFFEE76868C8
:1015B000001B78606C603846FFF74CFD184968687E
:1015C0000968081A1649086008460068164909683B
:1015D000884203D212480068134908600F496868BE
:1015E0000968084368600020286001F077F808F077
:1015F000070008B9012000E0002050B900BF5020CA
:1016000080F31188BFF34F8FBFF36F8F00BF00BF10
:10161000FEE74046BDE8F0817C0000208800002005
:10162000800000207400002084000020001F4FF084
:1016300080730360001F21F001030360001F054B4E
:10164000036014380260001F6FF00203036020384B
:10165000704700001914000801460A69D1E90130F9
:101660009860D1E9010358605068884201D18868C8
:101670005060002008611068401E106010687047BC
:1016800000F1080141604FF0FF31816000F1080175
:10169000C160016100210160704700210161704754
:1016A00010B502460B685C1C0CB9106907E002F12A
:1016B000080000E04068446824689C42FAD9446805
:1016C0004C604C68A160886041600A611468641CC9
:1016D000146010BD42684A6093688B6093685960DB
:1016E0009160086103685B1C0360704700BF502075
:1016F00080F31188BFF34F8FBFF36F8F00BF0E4889
:101700000068401C0C49086008460068012812D196
:101710000A480068C0B208B9012000E0002050B9B2
:1017200000BF502080F31188BFF34F8FBFF36F8F3E
:1017300000BF00BFFEE770476800002004ED00E036
:101740000D48006850B900BF502080F31188BFF3E6
:101750004F8FBFF36F8F00BF00BFFEE706480068E2
:10176000401E054908600846006820B9002080F343
:10177000118800BF00BF70476800002070B50646A2
:101780003546002E3FD0083D2C461F496068096849
:10179000084008B1012000E0002050B900BF5020EF
:1017A00080F31188BFF34F8FBFF36F8F00BF00BF6F
:1017B000FEE7206808B9012000E0002050B900BF12
:1017C000502080F31188BFF34F8FBFF36F8F00BF9E
:1017D00000BFFEE70C4960680968084098B12068BE
:1017E00088B90949606809688843606000F018FAA0
:1017F0000649606809680844044908602046FFF704
:1018000029FC00F06BFF70BD8800002080000020E4
:1018100000204FF0E02108618861064800684FF41D
:101820007A71B0FBF1F0401E4FF0E02148610720D3
:10183000086170470000002070B5FEF763FD0446A4
:10184000102C16D304F1E02090F8F05315480078DE
:10185000854201DB012000E0002050B900BF50208C
:1018600080F31188BFF34F8FBFF36F8F00BF00BFAE
:10187000FEE70D48006800F4E0600C490968884202
:1018800001D8012000E0002050B900BF502080F3B3
:101890001188BFF34F8FBFF36F8F00BF00BFFEE70C
:1018A00070BD00006C0000200CED00E07000002016
:1018B000024600200BE0084B53F8303033B9064B9A
:1018C00043F8301003EBC0035A6002E0401C0828C4
:1018D000F1D300BF704700008C0000202DE9F041DB
:1018E00005460E4617462C46FFF700FF94F94400C4
:1018F000401C10B9002084F8440094F94500401CB5
:1019000010B9002084F84500FFF71AFFA06B28B932
:101910003A46314604F1240000F018F92046FFF75A
:10192000A8FDBDE8F08100002DE9F04704460F4610
:101930004FF0000954B900BF502080F31188BFF365
:101940004F8FBFF36F8F00BF00BFFEE70FB10120C5
:1019500000E0002050B900BF502080F31188BFF391
:101960004F8FBFF36F8F00BF00BFFEE720480068B6
:1019700008B9012000E0002050B900BF502080F3DA
:101980001188BFF34F8FBFF36F8F00BF00BFFEE71B
:1019900000F046F9174806682068C5192068B0426B
:1019A00007D92068A8420BD9B54209D94FF00109DF
:1019B00006E02068A84201D8B54201D94FF00109DC
:1019C0002560B9F1000F03D0A81B0021FFF7DEF856
:1019D00000F084FE8046B8F1000F07D14FF0805030
:1019E00005490860BFF34F8FBFF36F8FBDE8F087E5
:1019F000500000202C00002004ED00E070B50546EA
:101A0000FFF774FE15B93048006800E02846044628
:101A1000201DFFF721FE78B9E06A00EB80002B491A
:101A200051F8200040B994F82C1001208840284932
:101A30000968814326480160A06A18B104F11800C2
:101A4000FFF70AFE23480068401C224908601E4830
:101A50000068844209D1211D1F48FFF73BFE1F4843
:101A60000068401C1D49086009E01D480068401ED0
:101A70001B4908602046FFF7DAF9FFF74DFCFFF736
:101A80005FFE18480068E8B10F480068844219D129
:101A90001548006808B9012000E0002050B900BFD7
:101AA000502080F31188BFF34F8FBFF36F8F00BFBB
:101AB00000BFFEE74FF080500C490860BFF34F8F26
:101AC000BFF36F8F70BD000018000020CC00002015
:101AD00030000020440000206C0100202400002081
:101AE00028000020340000205000002004ED00E019
:101AF00003490968016003490968416070470000B3
:101B0000400000202C00002001200149086070479F
:101B10003C00002070B504460D4654B900BF50206B
:101B200080F31188BFF34F8FBFF36F8F00BF00BFEB
:101B3000FEE70548016818312046FFF7B1FD012195
:101B40002846FFF723F870BD1800002070B5054641
:101B50000E46144655B900BF502080F31188BFF3DC
:101B60004F8FBFF36F8F00BF00BFFEE706480168CD
:101B700018312846FFF7AEFD0CB14FF0FF36214675
:101B80003046FFF703F870BD180000201CB51D4853
:101B900000210B468222CDE900101BA11C4800F059
:101BA00003FC0446012C02D100F01AFE0446012C6D
:101BB00015D100BF502080F31188BFF34F8FBFF3C2
:101BC0006F8F00BF4FF0FF301249086001201249AB
:101BD000086000201149086000F070F810E0601CF7
:101BE00008B1012000E0002050B900BF502080F370
:101BF0001188BFF34F8FBFF36F8F00BF00BFFEE7A9
:101C00001CBD00004C00002049444C450000000071
:101C1000E50E000848000020340000202C000020C1
:101C200002480068401C01490860704750000020CD
:101C30001D48006818B101201C49086032E00020EE
:101C40001A4908601A480068B0FA80F0C0F11F0114
:101C500001EB8100174A52F8200008B1012000E092
:101C6000002050B900BF502080F31188BFF34F8F80
:101C7000BFF36F8F00BF00BFFEE701EB81020D4B8A
:101C800003EB820042685268426000F10802436838
:101C9000934202D14268526842604268D268064B61
:101CA0001A6000BF70470000500000203C00002078
:101CB00030000020CC000020180000201CB5524845
:101CC00000685249884201D0012000E0002050B94C
:101CD00000BF502080F31188BFF34F8FBFF36F8F89
:101CE00000BF00BFFEE7484800684849491E8842D7
:101CF00001D0012000E0002050B900BF502080F347
:101D00001188BFF34F8FBFF36F8F00BF00BFFEE797
:101D10003F49084600780190FF200A4610700846A7
:101D2000007800909DF8000000F0F0009DF8002081
:101D3000904201D1012000E0002050B900BF5020A6
:101D400080F31188BFF34F8FBFF36F8F00BF00BFC9
:101D5000FEE79DF8000000F050002E4A10700720AA
:101D60002D4A106009E02C480068401E2A4A106085
:101D70009DF800004006000E00909DF8000000F065
:101D800080008028EFD024480068C0F107000428B4
:101D900001D1012000E0002050B900BF502080F3A5
:101DA0001188BFF34F8FBFF36F8F00BF00BFFEE7F7
:101DB000194800680002184A10601046008800F4B4
:101DC000E0601060124A019810700F4820300068DF
:101DD00040F470000C49203108600846006840F06B
:101DE00070400860FFF714FD00200C490860FEF702
:101DF00051FA0B48006840F0404009490860FEF77E
:101E000035FA00201CBD000000ED00E071C20F415A
:101E100000E400E06C00002070000020680000205A
:101E200034EF00E02DE9F84305460E4690460DB12B
:101E3000012000E0002050B900BF502080F311883D
:101E4000BFF34F8FBFF36F8F00BF00BFFEE70EB928
:101E5000002701E005FB06F707F15000FFF748FBFC
:101E6000044644B104F1500943464A4631462846E7
:101E70000094FFF74BF82046BDE8F88370B505469F
:101E80000E462C4654B900BF502080F31188BFF392
:101E90004F8FBFF36F8F00BF00BFFEE7FFF726FC39
:101EA000D4E90F12206801FB020060600020A063EB
:101EB0002068A060E06B401E226C216800FB0210CD
:101EC000E060FF2084F8440084F845009EB9206952
:101ED00008B9012000E00020A8B904F1100000F0CA
:101EE000B1FB80B14FF0805009490860BFF34F8FBC
:101EF000BFF36F8F07E004F11000FFF7C1FB04F19F
:101F00002400FFF7BDFBFFF71BFC012070BD0000A4
:101F100004ED00E02DE9FF4383B0064688461D46E8
:101F20004FF00009344654B900BF502080F31188A7
:101F3000BFF34F8FBFF36F8F00BF00BFFEE7B8F155
:101F4000000F01D1206C08B9012000E0002050B939
:101F500000BF502080F31188BFF34F8FBFF36F8F06
:101F600000BF00BFFEE7022D02D1E06B012801D1C6
:101F7000012000E0002050B900BF502080F31188FC
:101F8000BFF34F8FBFF36F8F00BF00BFFEE700F0BE
:101F90003BFA08B9059808B9012000E0002050B9C3
:101FA00000BF502080F31188BFF34F8FBFF36F8FB6
:101FB00000BF00BFFEE700BFFFF798FBA06BE16B1F
:101FC000884201D3022D28D12A4641462046FEF7F9
:101FD000F0FE0746606A08B9012000E0002068B9F9
:101FE00004F1240000F02EFB88B14FF080503249FC
:101FF0000860BFF34F8FBFF36F8F08E03FB14FF022
:1020000080502D490860BFF34F8FBFF36F8FFFF7EC
:1020100097FB012007B0BDE8F083059818B9FFF7DA
:102020008FFB0020F6E7B9F1000F04D101A8FFF7FC
:102030005FFD4FF00109FFF783FBFFF7F1FDFFF7AD
:1020400055FB94F94400401C10B9002084F844006A
:1020500094F94500401C10B9002084F84500FFF7B2
:102060006FFB05A901A800F059F9F0B92046FFF768
:102070005EF8A0B104F110000599FFF74BFD204672
:10208000FFF7F7F900F02AFB002895D14FF08050B8
:1020900009490860BFF34F8FBFF36F8F8CE720466D
:1020A000FFF7E7F900F01AFB86E72046FFF7E1F9B2
:1020B00000F014FB0020ADE704ED00E02DE9F05F37
:1020C00007468A4690461E463C4654B900BF5020FB
:1020D00080F31188BFF34F8FBFF36F8F00BF00BF36
:1020E000FEE7BAF1000F01D1206C08B9012000E031
:1020F000002050B900BF502080F31188BFF34F8FEC
:10210000BFF36F8F00BF00BFFEE7022E02D1E06B6E
:10211000012801D1012000E0002050B900BF50206B
:1021200080F31188BFF34F8FBFF36F8F00BF00BFE5
:10213000FEE7FFF781FB00BF5021EFF3118081F331
:102140001188BFF34F8FBFF36F8F00BF0546A06BA1
:10215000E16B884201D3022E23D194F945B0324677
:1021600051462046FEF725FE0BF1010088B9606A52
:1021700008B9012000E0002080B904F1240000F03B
:1021800061FA58B1B8F1000F08D00120C8F800007A
:1021900004E00BF1010040B284F845004FF0010962
:1021A00001E04FF0000900BF85F3118800BF4846E9
:1021B000BDE8F09F2DE9F74183B005460E464FF08C
:1021C00000082C4654B900BF502080F31188BFF39B
:1021D0004F8FBFF36F8F00BF00BFFEE70EB9206CBB
:1021E00008B9012000E0002050B900BF502080F362
:1021F0001188BFF34F8FBFF36F8F00BF00BFFEE7A3
:1022000000F002F908B9059808B9012000E00020A3
:1022100050B900BF502080F31188BFF34F8FBFF338
:102220006F8F00BF00BFFEE700BFFFF75FFAA76B2D
:10223000F7B131462046FEF7A7FD781EA06320695E
:1022400008B9012000E0002060B904F1100000F09E
:10225000F9F938B14FF080502F490860BFF34F8F24
:10226000BFF36F8FFFF76CFA012006B0BDE8F08175
:10227000059818B9FFF764FA0020F6E7B8F1000FE7
:1022800004D101A8FFF734FC4FF00108FFF758FA1A
:10229000FFF7C6FCFFF72AFA94F94400401C10B976
:1022A000002084F8440094F94500401C10B9002037
:1022B00084F84500FFF744FA05A901A800F02EF8BC
:1022C000F0B92046FEF726FFA0B104F124000599DD
:1022D000FFF720FC2046FFF7CCF800F0FFF90028BC
:1022E000A3D14FF080500C490860BFF34F8FBFF36C
:1022F0006F8F9AE72046FFF7BCF800F0EFF994E7FC
:102300002046FFF7B6F800F0E9F92046FEF702FF95
:1023100000288AD00020A8E704ED00E070B505464B
:102320000C4655B900BF502080F31188BFF34F8F82
:10233000BFF36F8F00BF00BFFEE754B900BF50204E
:1023400080F31188BFF34F8FBFF36F8F00BF00BFC3
:10235000FEE7FFF7CBF9124802686868131A206895
:10236000401C08B9002617E00E4928680968884211
:1023700004D06868904201D801260DE02068984298
:1023800007D92068C01A20602846FFF7B1FB002655
:1023900002E0002020600126FFF7D2F9304670BD30
:1023A0002C000020400000202DE9FF4F85B0804622
:1023B00089461746DDE912ABB800FFF799F80646E3
:1023C00056B15820FFF794F804460CB1266304E098
:1023D0003046FFF7D3F900E000247CB10020CDE9BE
:1023E00000ABCDE902403A4649464046089BFEF71D
:1023F000A2FD2046FEF716FC012501E04FF0FF3557
:10240000284609B0BDE8F08F0549096809B90120DF
:1024100005E00449096809B9022000E0002070477E
:102420003400002050000020014908687047000077
:102430002C0000202DE9F0414FF0000844480068CE
:10244000002877D143480068451C4248056015BB09
:1024500041480068006808B9012000E0002050B938
:1024600000BF502080F31188BFF34F8FBFF36F8FF1
:1024700000BF00BFFEE738480768384800683649A3
:1024800008603648076036480068401C34490860D8
:10249000FEF742FF00BF3348006885423CD300BFCF
:1024A0002D480068006808B9012000E0002020B134
:1024B0004FF0FF302B4908602DE027480068C068C6
:1024C000C4686668B54202D22648066023E0201D33
:1024D000FFF7C2F8A06A18B104F11800FFF7BCF8C2
:1024E00094F82C10012088401F49096808431E49B0
:1024F0000860E16A01EB81011C4A02EB8100211DA9
:10250000FFF7E8F81A49E06A0968C96A8842C7D340
:102510004FF00108C4E700BF15480068C06A00EB2F
:102520008000124951F82000012801D94FF001081C
:1025300005E0FFE70F480068401C0E4908600E48A0
:10254000006808B14FF001084046BDE8F081000086
:10255000500000202C0000201C0000202000002043
:10256000400000204800002030000020CC00002067
:1025700018000020380000203C00002070B50546FF
:102580002C460026002D55D02B480068844201D1EE
:10259000012000E0002050B900BF502080F31188D6
:1025A000BFF34F8FBFF36F8F00BF00BFFEE7E06C3C
:1025B00050B900BF502080F31188BFF34F8FBFF395
:1025C0006F8F00BF00BFFEE7E06C401EE064A16CAF
:1025D000E06A88422ED0E06C60BB201DFFF73CF81B
:1025E00078B9E06A00EB8000144951F8200040B946
:1025F00094F82C1001208840114909688143104843
:102600000160A06CE062E06AC0F10500A06194F88E
:102610002C10012088400A490968084308490860CD
:10262000E16A01EB8101054A02EB8100211DFFF700
:1026300051F80126304670BD18000020CC00002063
:102640003000002070B50646F068C46854B900BF79
:10265000502080F31188BFF34F8FBFF36F8F00BFFF
:1026600000BFFEE704F11800FEF7F6FF154800680A
:10267000A8B9201DFEF7F0FF94F82C100120884027
:1026800011490968084310490860E16A01EB8101BA
:102690000E4A02EB8100211DFFF71CF804E004F153
:1026A00018010B48FFF716F80A49E06A0968C96A79
:1026B000884204D9012501200749086000E000256F
:1026C000284670BD5000002030000020CC000020C3
:1026D00058010020180000203C00002070B50024A4
:1026E00000263648006850B900BF502080F311889A
:1026F000BFF34F8FBFF36F8F00BF00BFFEE7FEF742
:10270000F5FF2E480068401E2C4908600846006806
:1027100000284FD12A48006800284BD024E02948DF
:10272000C068C46804F11800FEF796FF201DFEF78C
:1027300093FF94F82C10012088402349096808432E
:1027400021490860E16A01EB8101204A02EB810026
:10275000211DFEF7BFFF1E49E06A0968C96A884269
:1027600002D301201B4908601648006808B90120FF
:1027700000E000200028D2D00CB1FEF7CDFD1648B5
:10278000056865B100BFFFF755FE10B10120114982
:1027900008606D1E002DF6D100200F4908600D481D
:1027A000006838B1012630070C490860BFF34F8F2D
:1027B000BFF36F8FFEF7C4FF304670BD500000209E
:1027C000280000205801002030000020CC0000200C
:1027D000180000203C0000203800002004ED00E03C
:1027E0001CB50024FEF77AFA0E48006858B10E486E
:1027F000022100234FF48272CDE900100BA10D4895
:10280000FFF7D2FD044654B900BF502080F3118871
:10281000BFF34F8FBFF36F8F00BF00BFFEE72046AF
:102820001CBD00005C00002060000020546D722080
:1028300053766300591400082DE9FE4304460D4603
:1028400016461F46DDF828804FF0000954B900BF36
:10285000502080F31188BFF34F8FBFF36F8F00BFFD
:1028600000BFFEE71448006810B30095019602947B
:10287000062D15DAFFF7C8FD022808D100234246CD
:1028800069460D480068FFF745FB814610E00023CC
:102890001A46694608480068FFF73CFB814607E096
:1028A00000233A46694604480068FFF707FC814662
:1028B0004846BDE8FE8300005C0000204FF04070F9
:1028C000E1EE100A7047EE0E4D0DD90B2F0BF709F4
:1028D000E008E8077707A606F6059705FB047004ED
:1028E000F403BB035303F602CB027D023802FA0164
:1028F000091409040902070109150B150B150C022F
:102900000502020C09020204150000002C2900082F
:10291000000000208C000000E8010008B829000831
:102920008C00002094410100040200080095BA0ABE
:10293000000000000000000001020304060708096F
:102940000000000000000000000000000000000087
:102950000000000000000000000000000000000077
:102960000000000000000000000000000000000067
:102970000000000000000000000000000000000057
:102980000000000000000000000000000000000047
:1029900000000000AAAAAAAA00000000000000008F
:1029A0000000000000000000000000000000000027
:0829B00000000000000000001F
:04000005080001AD41
:00000001FF
